{
  "_format": "hh-sol-artifact-1",
  "contractName": "ProposalBoxGovernor",
  "sourceName": "contracts/ProposalBoxGovernor.sol",
  "abi": [
    {
      "inputs": [],
      "stateMutability": "nonpayable",
      "type": "constructor"
    },
    {
      "inputs": [],
      "name": "AccessControlBadConfirmation",
      "type": "error"
    },
    {
      "inputs": [
        {
          "internalType": "address",
          "name": "account",
          "type": "address"
        },
        {
          "internalType": "bytes32",
          "name": "neededRole",
          "type": "bytes32"
        }
      ],
      "name": "AccessControlUnauthorizedAccount",
      "type": "error"
    },
    {
      "inputs": [],
      "name": "EnforcedPause",
      "type": "error"
    },
    {
      "inputs": [],
      "name": "ExpectedPause",
      "type": "error"
    },
    {
      "inputs": [],
      "name": "HandlesAlreadySavedForRequestID",
      "type": "error"
    },
    {
      "inputs": [],
      "name": "InvalidKMSSignatures",
      "type": "error"
    },
    {
      "inputs": [],
      "name": "NoHandleFoundForRequestID",
      "type": "error"
    },
    {
      "inputs": [],
      "name": "ReentrancyGuardReentrantCall",
      "type": "error"
    },
    {
      "anonymous": false,
      "inputs": [
        {
          "indexed": true,
          "internalType": "uint256",
          "name": "requestID",
          "type": "uint256"
        }
      ],
      "name": "DecryptionFulfilled",
      "type": "event"
    },
    {
      "anonymous": false,
      "inputs": [
        {
          "indexed": true,
          "internalType": "uint256",
          "name": "proposalId",
          "type": "uint256"
        },
        {
          "indexed": false,
          "internalType": "uint256",
          "name": "timestamp",
          "type": "uint256"
        }
      ],
      "name": "DecryptionRequested",
      "type": "event"
    },
    {
      "anonymous": false,
      "inputs": [
        {
          "indexed": false,
          "internalType": "address",
          "name": "account",
          "type": "address"
        }
      ],
      "name": "Paused",
      "type": "event"
    },
    {
      "anonymous": false,
      "inputs": [
        {
          "indexed": true,
          "internalType": "uint256",
          "name": "proposalId",
          "type": "uint256"
        },
        {
          "indexed": true,
          "internalType": "address",
          "name": "proposer",
          "type": "address"
        },
        {
          "indexed": false,
          "internalType": "string",
          "name": "title",
          "type": "string"
        },
        {
          "indexed": false,
          "internalType": "uint256",
          "name": "votingDeadline",
          "type": "uint256"
        },
        {
          "indexed": false,
          "internalType": "enum ProposalBoxGovernor.VotingMode",
          "name": "votingMode",
          "type": "uint8"
        },
        {
          "indexed": false,
          "internalType": "uint256",
          "name": "optionCount",
          "type": "uint256"
        }
      ],
      "name": "ProposalCreated",
      "type": "event"
    },
    {
      "anonymous": false,
      "inputs": [
        {
          "indexed": true,
          "internalType": "uint256",
          "name": "proposalId",
          "type": "uint256"
        },
        {
          "indexed": false,
          "internalType": "uint256",
          "name": "timestamp",
          "type": "uint256"
        }
      ],
      "name": "ProposalDecrypted",
      "type": "event"
    },
    {
      "anonymous": false,
      "inputs": [
        {
          "indexed": true,
          "internalType": "uint256",
          "name": "proposalId",
          "type": "uint256"
        },
        {
          "indexed": false,
          "internalType": "uint256",
          "name": "timestamp",
          "type": "uint256"
        }
      ],
      "name": "ProposalEnded",
      "type": "event"
    },
    {
      "anonymous": false,
      "inputs": [
        {
          "indexed": true,
          "internalType": "bytes32",
          "name": "role",
          "type": "bytes32"
        },
        {
          "indexed": true,
          "internalType": "bytes32",
          "name": "previousAdminRole",
          "type": "bytes32"
        },
        {
          "indexed": true,
          "internalType": "bytes32",
          "name": "newAdminRole",
          "type": "bytes32"
        }
      ],
      "name": "RoleAdminChanged",
      "type": "event"
    },
    {
      "anonymous": false,
      "inputs": [
        {
          "indexed": true,
          "internalType": "bytes32",
          "name": "role",
          "type": "bytes32"
        },
        {
          "indexed": true,
          "internalType": "address",
          "name": "account",
          "type": "address"
        },
        {
          "indexed": true,
          "internalType": "address",
          "name": "sender",
          "type": "address"
        }
      ],
      "name": "RoleGranted",
      "type": "event"
    },
    {
      "anonymous": false,
      "inputs": [
        {
          "indexed": true,
          "internalType": "bytes32",
          "name": "role",
          "type": "bytes32"
        },
        {
          "indexed": true,
          "internalType": "address",
          "name": "account",
          "type": "address"
        },
        {
          "indexed": true,
          "internalType": "address",
          "name": "sender",
          "type": "address"
        }
      ],
      "name": "RoleRevoked",
      "type": "event"
    },
    {
      "anonymous": false,
      "inputs": [
        {
          "indexed": false,
          "internalType": "address",
          "name": "account",
          "type": "address"
        }
      ],
      "name": "Unpaused",
      "type": "event"
    },
    {
      "anonymous": false,
      "inputs": [
        {
          "indexed": true,
          "internalType": "uint256",
          "name": "proposalId",
          "type": "uint256"
        },
        {
          "indexed": true,
          "internalType": "address",
          "name": "voter",
          "type": "address"
        },
        {
          "indexed": false,
          "internalType": "uint256",
          "name": "timestamp",
          "type": "uint256"
        }
      ],
      "name": "VoteCast",
      "type": "event"
    },
    {
      "inputs": [],
      "name": "ADMIN_ROLE",
      "outputs": [
        {
          "internalType": "bytes32",
          "name": "",
          "type": "bytes32"
        }
      ],
      "stateMutability": "view",
      "type": "function"
    },
    {
      "inputs": [],
      "name": "DEFAULT_ADMIN_ROLE",
      "outputs": [
        {
          "internalType": "bytes32",
          "name": "",
          "type": "bytes32"
        }
      ],
      "stateMutability": "view",
      "type": "function"
    },
    {
      "inputs": [
        {
          "internalType": "string",
          "name": "title",
          "type": "string"
        },
        {
          "internalType": "string",
          "name": "description",
          "type": "string"
        },
        {
          "internalType": "uint256",
          "name": "votingDuration",
          "type": "uint256"
        },
        {
          "internalType": "enum ProposalBoxGovernor.VotingMode",
          "name": "votingMode",
          "type": "uint8"
        },
        {
          "internalType": "string[]",
          "name": "optionTitles",
          "type": "string[]"
        },
        {
          "internalType": "string[]",
          "name": "optionDescriptions",
          "type": "string[]"
        }
      ],
      "name": "createProposal",
      "outputs": [
        {
          "internalType": "uint256",
          "name": "",
          "type": "uint256"
        }
      ],
      "stateMutability": "nonpayable",
      "type": "function"
    },
    {
      "inputs": [
        {
          "internalType": "uint256",
          "name": "proposalId",
          "type": "uint256"
        }
      ],
      "name": "endProposal",
      "outputs": [],
      "stateMutability": "nonpayable",
      "type": "function"
    },
    {
      "inputs": [
        {
          "internalType": "uint256",
          "name": "requestId",
          "type": "uint256"
        },
        {
          "internalType": "bytes",
          "name": "cleartexts",
          "type": "bytes"
        },
        {
          "internalType": "bytes",
          "name": "decryptionProof",
          "type": "bytes"
        }
      ],
      "name": "fulfillDecryption",
      "outputs": [],
      "stateMutability": "nonpayable",
      "type": "function"
    },
    {
      "inputs": [
        {
          "internalType": "uint256",
          "name": "proposalId",
          "type": "uint256"
        }
      ],
      "name": "getProposal",
      "outputs": [
        {
          "internalType": "string",
          "name": "title",
          "type": "string"
        },
        {
          "internalType": "string",
          "name": "description",
          "type": "string"
        },
        {
          "internalType": "address",
          "name": "proposer",
          "type": "address"
        },
        {
          "internalType": "uint256",
          "name": "votingDeadline",
          "type": "uint256"
        },
        {
          "internalType": "enum ProposalBoxGovernor.ProposalStatus",
          "name": "status",
          "type": "uint8"
        },
        {
          "internalType": "enum ProposalBoxGovernor.VotingMode",
          "name": "votingMode",
          "type": "uint8"
        },
        {
          "internalType": "uint256",
          "name": "optionCount",
          "type": "uint256"
        },
        {
          "internalType": "uint256",
          "name": "totalVoters",
          "type": "uint256"
        }
      ],
      "stateMutability": "view",
      "type": "function"
    },
    {
      "inputs": [
        {
          "internalType": "uint256",
          "name": "proposalId",
          "type": "uint256"
        }
      ],
      "name": "getResults",
      "outputs": [
        {
          "internalType": "uint32[]",
          "name": "",
          "type": "uint32[]"
        }
      ],
      "stateMutability": "view",
      "type": "function"
    },
    {
      "inputs": [
        {
          "internalType": "bytes32",
          "name": "role",
          "type": "bytes32"
        }
      ],
      "name": "getRoleAdmin",
      "outputs": [
        {
          "internalType": "bytes32",
          "name": "",
          "type": "bytes32"
        }
      ],
      "stateMutability": "view",
      "type": "function"
    },
    {
      "inputs": [
        {
          "internalType": "uint256",
          "name": "proposalId",
          "type": "uint256"
        },
        {
          "internalType": "uint256",
          "name": "optionId",
          "type": "uint256"
        }
      ],
      "name": "getVoteOption",
      "outputs": [
        {
          "internalType": "string",
          "name": "title",
          "type": "string"
        },
        {
          "internalType": "string",
          "name": "description",
          "type": "string"
        },
        {
          "internalType": "uint32",
          "name": "decryptedVotes",
          "type": "uint32"
        }
      ],
      "stateMutability": "view",
      "type": "function"
    },
    {
      "inputs": [
        {
          "internalType": "bytes32",
          "name": "role",
          "type": "bytes32"
        },
        {
          "internalType": "address",
          "name": "account",
          "type": "address"
        }
      ],
      "name": "grantRole",
      "outputs": [],
      "stateMutability": "nonpayable",
      "type": "function"
    },
    {
      "inputs": [
        {
          "internalType": "bytes32",
          "name": "role",
          "type": "bytes32"
        },
        {
          "internalType": "address",
          "name": "account",
          "type": "address"
        }
      ],
      "name": "hasRole",
      "outputs": [
        {
          "internalType": "bool",
          "name": "",
          "type": "bool"
        }
      ],
      "stateMutability": "view",
      "type": "function"
    },
    {
      "inputs": [],
      "name": "pause",
      "outputs": [],
      "stateMutability": "nonpayable",
      "type": "function"
    },
    {
      "inputs": [],
      "name": "paused",
      "outputs": [
        {
          "internalType": "bool",
          "name": "",
          "type": "bool"
        }
      ],
      "stateMutability": "view",
      "type": "function"
    },
    {
      "inputs": [],
      "name": "proposalCount",
      "outputs": [
        {
          "internalType": "uint256",
          "name": "",
          "type": "uint256"
        }
      ],
      "stateMutability": "view",
      "type": "function"
    },
    {
      "inputs": [
        {
          "internalType": "uint256",
          "name": "",
          "type": "uint256"
        },
        {
          "internalType": "uint256",
          "name": "",
          "type": "uint256"
        }
      ],
      "name": "proposalOptions",
      "outputs": [
        {
          "internalType": "string",
          "name": "title",
          "type": "string"
        },
        {
          "internalType": "string",
          "name": "description",
          "type": "string"
        },
        {
          "internalType": "euint32",
          "name": "encryptedVotes",
          "type": "bytes32"
        },
        {
          "internalType": "uint32",
          "name": "decryptedVotes",
          "type": "uint32"
        }
      ],
      "stateMutability": "view",
      "type": "function"
    },
    {
      "inputs": [
        {
          "internalType": "uint256",
          "name": "",
          "type": "uint256"
        }
      ],
      "name": "proposals",
      "outputs": [
        {
          "internalType": "uint256",
          "name": "id",
          "type": "uint256"
        },
        {
          "internalType": "string",
          "name": "title",
          "type": "string"
        },
        {
          "internalType": "string",
          "name": "description",
          "type": "string"
        },
        {
          "internalType": "address",
          "name": "proposer",
          "type": "address"
        },
        {
          "internalType": "uint256",
          "name": "createdAt",
          "type": "uint256"
        },
        {
          "internalType": "uint256",
          "name": "votingDeadline",
          "type": "uint256"
        },
        {
          "internalType": "enum ProposalBoxGovernor.ProposalStatus",
          "name": "status",
          "type": "uint8"
        },
        {
          "internalType": "enum ProposalBoxGovernor.VotingMode",
          "name": "votingMode",
          "type": "uint8"
        },
        {
          "internalType": "uint256",
          "name": "optionCount",
          "type": "uint256"
        },
        {
          "internalType": "uint256",
          "name": "totalVoters",
          "type": "uint256"
        }
      ],
      "stateMutability": "view",
      "type": "function"
    },
    {
      "inputs": [],
      "name": "protocolId",
      "outputs": [
        {
          "internalType": "uint256",
          "name": "",
          "type": "uint256"
        }
      ],
      "stateMutability": "pure",
      "type": "function"
    },
    {
      "inputs": [
        {
          "internalType": "bytes32",
          "name": "role",
          "type": "bytes32"
        },
        {
          "internalType": "address",
          "name": "callerConfirmation",
          "type": "address"
        }
      ],
      "name": "renounceRole",
      "outputs": [],
      "stateMutability": "nonpayable",
      "type": "function"
    },
    {
      "inputs": [
        {
          "internalType": "uint256",
          "name": "proposalId",
          "type": "uint256"
        }
      ],
      "name": "requestDecryption",
      "outputs": [
        {
          "internalType": "uint256[]",
          "name": "",
          "type": "uint256[]"
        }
      ],
      "stateMutability": "nonpayable",
      "type": "function"
    },
    {
      "inputs": [
        {
          "internalType": "uint256",
          "name": "",
          "type": "uint256"
        }
      ],
      "name": "requestIdToProposalId",
      "outputs": [
        {
          "internalType": "uint256",
          "name": "",
          "type": "uint256"
        }
      ],
      "stateMutability": "view",
      "type": "function"
    },
    {
      "inputs": [
        {
          "internalType": "bytes32",
          "name": "role",
          "type": "bytes32"
        },
        {
          "internalType": "address",
          "name": "account",
          "type": "address"
        }
      ],
      "name": "revokeRole",
      "outputs": [],
      "stateMutability": "nonpayable",
      "type": "function"
    },
    {
      "inputs": [
        {
          "internalType": "bytes4",
          "name": "interfaceId",
          "type": "bytes4"
        }
      ],
      "name": "supportsInterface",
      "outputs": [
        {
          "internalType": "bool",
          "name": "",
          "type": "bool"
        }
      ],
      "stateMutability": "view",
      "type": "function"
    },
    {
      "inputs": [],
      "name": "unpause",
      "outputs": [],
      "stateMutability": "nonpayable",
      "type": "function"
    },
    {
      "inputs": [
        {
          "internalType": "uint256",
          "name": "proposalId",
          "type": "uint256"
        },
        {
          "internalType": "externalEuint32[]",
          "name": "encryptedChoices",
          "type": "bytes32[]"
        },
        {
          "internalType": "bytes",
          "name": "inputProof",
          "type": "bytes"
        }
      ],
      "name": "voteMultipleChoice",
      "outputs": [],
      "stateMutability": "nonpayable",
      "type": "function"
    },
    {
      "inputs": [
        {
          "internalType": "address",
          "name": "",
          "type": "address"
        },
        {
          "internalType": "uint256",
          "name": "",
          "type": "uint256"
        }
      ],
      "name": "voteRecords",
      "outputs": [
        {
          "internalType": "address",
          "name": "voter",
          "type": "address"
        },
        {
          "internalType": "uint256",
          "name": "proposalId",
          "type": "uint256"
        },
        {
          "internalType": "uint256",
          "name": "votedAt",
          "type": "uint256"
        },
        {
          "internalType": "bool",
          "name": "hasVoted",
          "type": "bool"
        }
      ],
      "stateMutability": "view",
      "type": "function"
    },
    {
      "inputs": [
        {
          "internalType": "uint256",
          "name": "proposalId",
          "type": "uint256"
        },
        {
          "internalType": "externalEuint32",
          "name": "encryptedChoice",
          "type": "bytes32"
        },
        {
          "internalType": "bytes",
          "name": "inputProof",
          "type": "bytes"
        }
      ],
      "name": "voteSingleChoice",
      "outputs": [],
      "stateMutability": "nonpayable",
      "type": "function"
    }
  ],
  "bytecode": "0x60806040523462000176575f6060620000176200028a565b8281528260208201528260408201520152620000326200028a565b606073687820221192c5b662b25367f70076a37bc79b6c9182815273848b0066793bcc60346da1f49049357399b8d59580602083015273a02cda4ca3a71d7c46997716f4283aa851c2881291826040820152731364cbbf2cdf5032c47d8226a6f6fbd2afcdacac938491015260018060a01b0319937f9e7b61f58c47dc699ac88507c4f5bb9f121c03808c5676a8078fe583e464970090858254161790557f9e7b61f58c47dc699ac88507c4f5bb9f121c03808c5676a8078fe583e464970190848254161790557f9e7b61f58c47dc699ac88507c4f5bb9f121c03808c5676a8078fe583e464970290838254161790557f9e7b61f58c47dc699ac88507c4f5bb9f121c03808c5676a8078fe583e4649703918254161790556001805562000159336200017a565b506200016533620001ea565b50604051612d149081620002bf8239f35b5f80fd5b6001600160a01b03165f8181525f8051602062002ff3833981519152602052604090205460ff16620001e5575f8181525f8051602062002ff383398151915260205260408120805460ff191660011790553391905f8051602062002fd38339815191528180a4600190565b505f90565b6001600160a01b03165f8181527f7d7ffb7a348e1c6a02869081a26547b49160dd3df72d1d75a570eb9b698292ec60205260409020547fa49807205ce4d355092ef5a8a18f56e8913cf4a201fbe287825b095693c21775919060ff166200028457815f525f60205260405f20815f5260205260405f20600160ff1982541617905533915f8051602062002fd38339815191525f80a4600190565b50505f90565b60405190608082016001600160401b03811183821017620002aa57604052565b634e487b7160e01b5f52604160045260245ffdfe60806040526004361015610011575f80fd5b5f803560e01c8063013cf08b146122c557806301ffc9a71461226f57806304fb2bfc14611aab5780630938212b14611a38578063248a9ca314611a0c5780632f2ff15d146119d057806336568abe1461198757806338fba2381461195d5780633f4ba83a146118f45780635c975abb146118d257806375b238fc1461189857806381a60c0d1461176257806382e89197146112fa5780638456cb591461129f57806391d1485414611256578063a07bd40014611169578063a217fddf1461114d578063a93b4ba1146110cb578063b1444c7f14610b0d578063b4ed7ec314610a28578063c7f758a81461094b578063d3251d0614610678578063d547741f14610637578063da1f12ab1461061a578063da35c664146105fc5763f265700d14610138575f80fd5b346105f95760603660031901126105f9576044356001600160401b0381116105f55761016890369060040161262d565b90916101726129de565b61017a612a01565b6004351515806105e7575b61018e906126a9565b6004358152600460205260ff60066040832001541660048110156105d3576101b69015612768565b600435815260046020526101d2600560408320015442106127be565b60043581526004602052604081209260ff600685015460081c1660028110156105bf5761057a57610231610239913384526006602052604084206004358552602052604084209461022a60ff6003880154161561280a565b3691612508565b602435612a1f565b9261024384612b29565b50815b600782015481101561050157600435835260056020526040832081845260205260408320905f602060018060a01b035f80516020612cbf8339815191525416604460405180948193639cd07acb60e01b835263ffffffff88166004840152600460248401525af1908115610470575f916104cf575b5080879188156104bf575b156104ad575b5f80516020612cbf8339815191525460405163f77f3f1d60e01b8152600481019390935260248301919091526001600160f81b0319861660448301526020908290606490829089906001600160a01b03165af190811561043257859161047b575b505f602060018060a01b035f80516020612cbf8339815191525416604460405180948193639cd07acb60e01b835260016004840152600460248401525af18015610470575f9061043d575b602091506064610386612c39565b5f80516020612cbf83398151915254604051637702dcff60e01b81526004810196909652602486019390935260448501528391829089906001600160a01b03165af19081156104325785916103fb575b506103f4906103ec600260019501918254612b86565b809155612b29565b5001610246565b90506020813d60201161042a575b81610416602093836123e5565b81010312610426575160016103d6565b5f80fd5b3d9150610409565b6040513d87823e3d90fd5b506020813d602011610468575b81610457602093836123e5565b810103126104265760209051610378565b3d915061044a565b6040513d5f823e3d90fd5b90506020813d6020116104a5575b81610496602093836123e5565b8101031261042657515f61032d565b3d9150610489565b5060206104b8612c39565b90506102cc565b91506104c9612c39565b916102c6565b90506020813d6020116104f9575b816104ea602093836123e5565b8101031261042657515f6102bb565b3d91506104dd565b5060089192336001600160601b0360a01b82541617815560043560018201554260028201556003600160ff1982840154161791015501610541815461265a565b905560405142815233907f2acce567deca3aabf56327adbb4524bd5318936eaefa69e3a5208ffda0cfec09602060043592a36001805580f35b60405162461bcd60e51b815260206004820152601860248201527f4e6f7420612073696e676c652063686f69636520766f746500000000000000006044820152606490fd5b634e487b7160e01b83526021600452602483fd5b634e487b7160e01b82526021600452602482fd5b506003546004351115610185565b5080fd5b80fd5b50346105f957806003193601126105f9576020600354604051908152f35b50346105f957806003193601126105f95760206040516127118152f35b50346105f95760403660031901126105f957610674600435610657612601565b908084528360205261066f60016040862001546128cf565b61296c565b5080f35b50346105f95760603660031901126105f9576001600160401b0380602435116105f5573660236024350112156105f5578060243560040135116105f55736602480356004013560051b81350101116105f5576044359081116105f5576106e290369060040161262d565b6106ea6129de565b6106f2612a01565b60043515158061093d575b610706906126a9565b6004358352600460205260ff60066040852001541660048110156109295761072e9015612768565b6004358352600460205261074a600560408520015442106127be565b60043583526004602052604083209160ff600684015460081c166002811015610915576001036108d0576007830154602435600401350361089257338452600660205260408420600435855260205260408420916107af60ff6003850154161561280a565b845b6007850154811015610852576024356004013581101561083e5760019061081f6107ef6107df368688612508565b60248460051b8135010135612a1f565b6107f881612b29565b506004358952600560205260408920838a526020526103ec600260408b2001918254612b86565b508087526004850160205260408720805460ff191683179055016107b1565b634e487b7160e01b86526032600452602486fd5b8560088686336001600160601b0360a01b82541617815560043560018201554260028201556003600160ff1982840154161791015501610541815461265a565b60405162461bcd60e51b8152602060048201526016602482015275092dcecc2d8d2c840c6d0ded2c6cae640d8cadccee8d60531b6044820152606490fd5b60405162461bcd60e51b815260206004820152601a60248201527f4e6f742061206d756c7469706c652063686f69636520766f74650000000000006044820152606490fd5b634e487b7160e01b85526021600452602485fd5b634e487b7160e01b84526021600452602484fd5b5060035460043511156106fd565b50346105f95760203660031901126105f95760406109d59160043580151580610a1c575b610978906126a9565b815260046020522060018060a01b0360038201541660058201546006830154610a0e6007850154916008860154936109e36109c160026109ba60018b01612406565b9901612406565b604051998a99610100808c528b01906124c9565b9089820360208b01526124c9565b95604088015260608701526109fe6080870160ff83166124ee565b60ff60a087019160081c166124fb565b60c084015260e08301520390f35b5060035481111561096f565b50346105f957610a3736612617565b9181151580610b01575b610a4a906126a9565b81815260046020526007604082200154831015610ac857610ab092604092825260056020528282209082526020522063ffffffff600382015416610abe610a9c6001610a9585612406565b9401612406565b6040519485946060865260608601906124c9565b9084820360208601526124c9565b9060408301520390f35b60405162461bcd60e51b8152602060048201526011602482015270125b9d985b1a59081bdc1d1a5bdb881251607a1b6044820152606490fd5b50600354821115610a41565b50346105f95760603660031901126105f9576024356001600160401b0381116105f557610b3e90369060040161254d565b6044356001600160401b03811161106157610b5d90369060040161254d565b60043583527f878245876662ba28a480c5ea71726db859fb50222b0a3d7cbbc21cfa336faf01806020526040842054156110b957600435845260205260408320906040518083602082955493848152019087526020872092875b8181106110a0575050610bcc925003836123e5565b825191826020018060201161108c5760408401106110785791602091610c7586610c8795610c22604080518097828c610c0d815180928e80880191016124a8565b830191018a82015203888101885201866123e5565b610c9960018060a01b037f9e7b61f58c47dc699ac88507c4f5bb9f121c03808c5676a8078fe583e4649703541694604051988997889687956378542ead60e01b8752606060048801526064870190612c8b565b858103600319016024870152906124c9565b838103600319016044850152906124c9565b03925af190811561106d57839161102e575b501561101c57604051906004357f1af0453083661051f6e56e5c070792320652e612154bf9af8637bb1e7655b99d8480a2600435835260076020526040832054918215610fe55750818352600460205260408320600681019160ff835416916004831015610fd157600790610d236001809514612727565b01805491610d30836126f5565b9260028103610e2d5750604081805181010312610e2957610d5f6040610d58602084016127ad565b92016127ad565b90610d6984612668565b63ffffffff8092169052610d7c84612675565b911690525b85835b610dc5575b50505050600260ff198254161790557f72d6818ff0874f5c7b7dcea4530e8a752a160f4cc4f4c863c4ec15eccccae53e6020604051428152a280f35b8251811080610e1f575b15610e1a578063ffffffff610de7610e149386612695565b5116878952600560205260408920828a52602052600360408a20019063ffffffff1982541617905561265a565b83610d84565b610d89565b5081548110610dcf565b8680fd5b60038103610e9b5750606081805181010312610e2957610e4f602082016127ad565b610e676060610e60604085016127ad565b93016127ad565b91610e7185612668565b63ffffffff809316905281610e8586612675565b91169052610e9284612685565b91169052610d81565b600403610f3357608081805181010312610e2957610ebb602082016127ad565b90610ec8604082016127ad565b90610eda6080610d58606084016127ad565b91610ee486612668565b63ffffffff809516905283610ef887612675565b9116905282610f0686612685565b91169052835160031015610f1f57166080830152610d81565b634e487b7160e01b5f52603260045260245ffd5b8091925051810190602081818401930312610e29576020810151906001600160401b038211610fcd57019080603f83011215610e29576020820151610f778161256b565b92610f8560405194856123e5565b8184526040602085019260051b820101928311610fc957604001905b828210610fb15750505090610d81565b60208091610fbe846127ad565b815201910190610fa1565b8880fd5b8780fd5b634e487b7160e01b86526021600452602486fd5b62461bcd60e51b8152602060048201526012602482015271125b9d985b1a59081c995c5d595cdd08125160721b6044820152606490fd5b60405163cf6c44e960e01b8152600490fd5b90506020813d602011611065575b81611049602093836123e5565b8101031261106157518015158103611061575f610cab565b8280fd5b3d915061103c565b6040513d85823e3d90fd5b634e487b7160e01b85526011600452602485fd5b634e487b7160e01b86526011600452602486fd5b8454835260019485019487945060209093019201610bb7565b60405163d66ca67560e01b8152600490fd5b50346105f9576040611130916110e036612617565b9082526005602052828220908252602052206110fb81612406565b9061110860018201612406565b61113e63ffffffff6003600285015494015416916040519586956080875260808701906124c9565b9085820360208701526124c9565b91604084015260608301520390f35b50346105f957806003193601126105f957602090604051908152f35b50346105f95760203660031901126105f957600435611186612856565b8015158061124a575b611198906126a9565b808252600460205260408220600681019081549060ff82166004811015610fd157906111c660059215612768565b015442106112055760019060ff19161790557f8a00b53a7387803f9f866a4e3c7c313a0ef8b7c7e3d8dfeeb091df38cb8688236020604051428152a280f35b60405162461bcd60e51b815260206004820152601760248201527f566f74696e6720706572696f64206e6f7420656e6465640000000000000000006044820152606490fd5b5060035481111561118f565b50346105f95760403660031901126105f9576040611272612601565b91600435815280602052209060018060a01b03165f52602052602060ff60405f2054166040519015158152f35b50346105f957806003193601126105f9576112b8612856565b6112c0612a01565b600160ff1960025416176002557f62e78cea01bee320cd4e420270b5ea74000d11b0c9f74754ebdbfc544b05a2586020604051338152a180f35b503461042657602036600319011261042657611314612856565b600435151580611754575b611328906126a9565b6004355f52600460205260405f2060ff60068201541660048110156117405760016113539114612727565b6007810154906113628261256b565b9161137060405193846123e5565b80835261137c8161256b565b601f19013660208501375f5b8181106117105750507f878245876662ba28a480c5ea71726db859fb50222b0a3d7cbbc21cfa336faf00547f9e7b61f58c47dc699ac88507c4f5bb9f121c03808c5676a8078fe583e4649700549092906001600160a01b03908116803b15610426575f6040518092637d6e912360e11b825260206004830152818381611411602482018a612c8b565b03925af18015610470576116fd575b5084907f9e7b61f58c47dc699ac88507c4f5bb9f121c03808c5676a8078fe583e46497025416803b156105f557816040518092633263b83b60e01b82528760048301526060602483015281838161147a606482018a612c8b565b63b1444c7f60e01b604483015203925af180156116f2576116da575b508390527f878245876662ba28a480c5ea71726db859fb50222b0a3d7cbbc21cfa336faf018060205260408520546116c857838552602052604084208151916001600160401b0383116116b457600160401b83116116b457815483835580841061168d575b5060200190855260208520855b83811061167957868660098761153e7f878245876662ba28a480c5ea71726db859fb50222b0a3d7cbbc21cfa336faf005461265a565b7f878245876662ba28a480c5ea71726db859fb50222b0a3d7cbbc21cfa336faf005501805490600160401b8210156116655760018201808255821015611651579082918452602084200155808252600760205260043560408320556040514281527f81bca54e6c48c44ec959a5581796be73005cbde51156a29bae607f52e9baa16c602060043592a2604051604081018181106001600160401b0382111761163d576040526001815290602080830191903683376115fb83612668565b52604051928392602084019060208552518091526040840192915b818110611624575050500390f35b8251845285945060209384019390920191600101611616565b634e487b7160e01b5f52604160045260245ffd5b634e487b7160e01b84526032600452602484fd5b634e487b7160e01b84526041600452602484fd5b600190602084519401938184015501611508565b82875260208720908482015b81830181106116a95750506114fb565b5f8155600101611699565b634e487b7160e01b86526041600452602486fd5b604051633f06d22b60e01b8152600490fd5b6116e3906123d2565b6116ee57835f611496565b8380fd5b6040513d84823e3d90fd5b6117089195506123d2565b5f935f611420565b6001906004355f52600560205260405f20815f52602052600260405f2001546117398287612695565b5201611388565b634e487b7160e01b5f52602160045260245ffd5b50600354600435111561131f565b346104265760208060031936011261042657600435908115158061188c575b61178a906126a9565b815f526004815260405f2060ff6006820154166004811015611740576002036118475760070154916117bb836126f5565b925f5b81811061180f57505050604051918183928301818452825180915281604085019301915f5b8281106117f257505050500390f35b835163ffffffff16855286955093810193928101926001016117e3565b600190835f969496526005855260405f20815f52855263ffffffff600360405f2001541661183d8286612695565b52019391936117be565b60405162461bcd60e51b815260048101839052601960248201527f526573756c7473206e6f742079657420646563727970746564000000000000006044820152606490fd5b50600354821115611781565b34610426575f3660031901126104265760206040517fa49807205ce4d355092ef5a8a18f56e8913cf4a201fbe287825b095693c217758152f35b34610426575f36600319011261042657602060ff600254166040519015158152f35b34610426575f3660031901126104265761190c612856565b60025460ff81161561194b5760ff19166002557f5db9ee0a495bf2e6ff9c91a7834c1ba4fdd244a5e8aa4e537bd38aeae4b073aa6020604051338152a1005b604051638dfc202b60e01b8152600490fd5b34610426576020366003190112610426576004355f526007602052602060405f2054604051908152f35b34610426576040366003190112610426576119a0612601565b336001600160a01b038216036119be576119bc9060043561296c565b005b60405163334bd91960e11b8152600490fd5b34610426576040366003190112610426576119bc6004356119ef612601565b90805f525f602052611a07600160405f2001546128cf565b6128f0565b34610426576020366003190112610426576004355f525f6020526020600160405f200154604051908152f35b34610426576040366003190112610426576004356001600160a01b0381811691829003610426576080915f52600660205260405f206024355f5260205260405f20908154169060018101549060ff6003600283015492015416916040519384526020840152604083015215156060820152f35b346104265760c0366003190112610426576004356001600160401b03811161042657611adb90369060040161254d565b6024356001600160401b03811161042657611afa90369060040161254d565b60646044600282351015610426576084356001600160401b03811161042657611b27903690600401612582565b9360a4356001600160401b03811161042657611b47903690600401612582565b9281511561223657610e108335106121f55762278d008335116121b457600286511061217357601486511161213f57855184510361210557611b8a60035461265a565b9283600355835f52600460205260405f209584875583516001600160401b03811161163d57611bbc600189015461239a565b601f81116120c1575b50806020601f8211600114612058575f9161204d575b508160011b915f199060031b1c19161760018801555b8051906001600160401b03821161163d578190611c1160028a015461239a565b601f8111611ffd575b50602090601f8311600114611f8f575f92611f84575b50508160011b915f199060031b1c19161760028701555b60038601336001600160601b0360a01b825416179055426004870155803542014211611f705742903501600586015560068501805461ffff1916823560081b61ff0016179055855160078601555f5b8651811015611f0557835f52600560205260405f20815f5260205260405f20611cbf8289612695565b518051906001600160401b03821161163d578190611cdd845461239a565b601f8111611eb8575b50602090601f8311600114611e50575f92611e45575b50508160011b915f199060031b1c19161781555b611d1a8287612695565b518051906001600160401b03821161163d57611d39600184015461239a565b601f8111611e01575b50602090601f8311600114611d92576001949392915f9183611d87575b50505f19600383901b1c191690841b17818401555b6002611d7e612c39565b91015501611c96565b015190508b80611d5f565b90600184015f5260205f20915f5b601f1985168110611de957509183916001969594938794601f19811610611dd1575b505050811b0183820155611d74565b01515f1960f88460031b161c191690558b8080611dc2565b91926020600181928685015181550194019201611da0565b600184015f5260205f20601f840160051c810160208510611e3e575b601f830160051c82018110611e33575050611d42565b5f8155600101611e1d565b5080611e1d565b015190508a80611cfc565b9250835f5260205f20905f935b601f1984168510611e9d576001945083601f19811610611e85575b505050811b018155611d10565b01515f1960f88460031b161c191690558a8080611e78565b81810151835560209485019460019093019290910190611e5d565b909150835f5260205f20601f840160051c810160208510611efe575b90849392915b601f830160051c82018110611ef0575050611ce6565b5f8155859450600101611eda565b5080611ed4565b60208488817fb0e027c580dced27bde003d7bfe082314866dc2f40fb4453a8b638b5f655768c8787611f5d60058e0154955191611f4d604051946080865260808601906124c9565b96898501526040840190356124fb565b60608201528033940390a3604051908152f35b634e487b7160e01b5f52601160045260245ffd5b015190508980611c30565b9250600289015f5260205f20905f935b601f1984168510611fe2576001945083601f19811610611fca575b505050811b016002870155611c47565b01515f1960f88460031b161c19169055898080611fba565b81810151835560209485019460019093019290910190611f9f565b909150600289015f5260205f20601f840160051c810160208510612046575b90849392915b601f830160051c82018110612038575050611c1a565b5f8155859450600101612022565b508061201c565b90508501518a611bdb565b9150600189015f5260205f205f925b601f19831684106120a9576001935082601f19811610612091575b5050811b016001880155611bf1565b8701515f1960f88460031b161c191690558a80612082565b87810151825560209384019360019092019101612067565b600189015f5260205f20601f830160051c8101602084106120fe575b601f830160051c820181106120f3575050611bc5565b5f81556001016120dd565b50806120dd565b60405162461bcd60e51b8152602060048201526016602482015275082e4e4c2f2e640d8cadccee8d040dad2e6dac2e8c6d60531b81850152fd5b60405162461bcd60e51b815260206004820152601060248201526f546f6f206d616e79206f7074696f6e7360801b81850152fd5b60405162461bcd60e51b815260206004820152601c60248201527f4d7573742068617665206174206c656173742032206f7074696f6e730000000081850152fd5b60405162461bcd60e51b815260206004820152601860248201527f566f74696e67206475726174696f6e20746f6f206c6f6e67000000000000000081850152fd5b60405162461bcd60e51b815260206004820152601960248201527f566f74696e67206475726174696f6e20746f6f2073686f72740000000000000081850152fd5b60405162461bcd60e51b81526020600482015260156024820152745469746c652063616e6e6f7420626520656d70747960581b81850152fd5b346104265760203660031901126104265760043563ffffffff60e01b811680910361042657602090637965db0b60e01b81149081156122b4575b506040519015158152f35b6301ffc9a760e01b149050826122a9565b34610426576020366003190112610426576004355f52600460205260405f2080546122f260018301612406565b916122ff60028201612406565b60018060a01b036003830154169161238a6004820154600583015460068401549161235a600860078701549601549661234c6040519b8c809c6020610140928392815201528c01906124c9565b908a820360408c01526124c9565b966060890152608088015260a087015261237a60c0870160ff83166124ee565b60ff60e087019160081c166124fb565b6101008401526101208301520390f35b90600182811c921680156123c8575b60208310146123b457565b634e487b7160e01b5f52602260045260245ffd5b91607f16916123a9565b6001600160401b03811161163d57604052565b90601f801991011681019081106001600160401b0382111761163d57604052565b9060405191825f82546124188161239a565b908184526020946001916001811690815f146124865750600114612448575b505050612446925003836123e5565b565b5f90815285812095935091905b81831061246e57505061244693508201015f8080612437565b85548884018501529485019487945091830191612455565b9250505061244694925060ff191682840152151560051b8201015f8080612437565b5f5b8381106124b95750505f910152565b81810151838201526020016124aa565b906020916124e2815180928185528580860191016124a8565b601f01601f1916010190565b9060048210156117405752565b9060028210156117405752565b9291926001600160401b03821161163d5760405191612531601f8201601f1916602001846123e5565b829481845281830111610426578281602093845f960137010152565b9080601f830112156104265781602061256893359101612508565b90565b6001600160401b03811161163d5760051b60200190565b81601f820112156104265780359160209161259c8461256b565b936125aa60405195866123e5565b808552838086019160051b8301019280841161042657848301915b8483106125d55750505050505090565b82356001600160401b0381116104265786916125f68484809489010161254d565b8152019201916125c5565b602435906001600160a01b038216820361042657565b6040906003190112610426576004359060243590565b9181601f84011215610426578235916001600160401b038311610426576020838186019501011161042657565b5f198114611f705760010190565b805115610f1f5760200190565b805160011015610f1f5760400190565b805160021015610f1f5760600190565b8051821015610f1f5760209160051b010190565b156126b057565b60405162461bcd60e51b815260206004820152601760248201527f50726f706f73616c20646f6573206e6f742065786973740000000000000000006044820152606490fd5b906126ff8261256b565b61270c60405191826123e5565b828152809261271d601f199161256b565b0190602036910137565b1561272e57565b60405162461bcd60e51b8152602060048201526012602482015271141c9bdc1bdcd85b081b9bdd08195b99195960721b6044820152606490fd5b1561276f57565b60405162461bcd60e51b815260206004820152601660248201527550726f706f73616c206973206e6f742061637469766560501b6044820152606490fd5b519063ffffffff8216820361042657565b156127c557565b60405162461bcd60e51b815260206004820152601760248201527f566f74696e6720706572696f642068617320656e6465640000000000000000006044820152606490fd5b1561281157565b60405162461bcd60e51b815260206004820152601e60248201527f416c726561647920766f746564206f6e20746869732070726f706f73616c00006044820152606490fd5b335f9081527f7d7ffb7a348e1c6a02869081a26547b49160dd3df72d1d75a570eb9b698292ec60205260409020547fa49807205ce4d355092ef5a8a18f56e8913cf4a201fbe287825b095693c217759060ff16156128b15750565b6044906040519063e2517d3f60e01b82523360048301526024820152fd5b805f525f60205260405f20335f5260205260ff60405f205416156128b15750565b90815f525f60205260405f209060018060a01b031690815f5260205260ff60405f205416155f1461296657815f525f60205260405f20815f5260205260405f20600160ff1982541617905533917f2f8788117e7eff1d82e926ec794901d17c78024a50270940304540a733656f0d5f80a4600190565b50505f90565b90815f525f60205260405f209060018060a01b031690815f5260205260ff60405f2054165f1461296657815f525f60205260405f20815f5260205260405f2060ff19815416905533917ff6391f5c32d9c69d2a47ea670b442974b53935d1edc7fd64eb21e047a839171b5f80a4600190565b6002600154146129ef576002600155565b604051633ee5aeb560e01b8152600490fd5b60ff60025416612a0d57565b60405163d93c066560e01b8152600490fd5b6020612a6f9260018060a01b0392835f80516020612cbf8339815191525416905f60405180978195829463196d0b9b60e01b845260048401523360248401526080604484015260848301906124c9565b6004606483015203925af1918215610470575f92612af5575b507f9e7b61f58c47dc699ac88507c4f5bb9f121c03808c5676a8078fe583e46497005416803b1561042657604051630f8e573b60e21b815260048101839052336024820152905f908290818381604481015b03925af1801561047057612aec575090565b612568906123d2565b9091506020813d602011612b21575b81612b11602093836123e5565b810103126104265751905f612a88565b3d9150612b04565b7f9e7b61f58c47dc699ac88507c4f5bb9f121c03808c5676a8078fe583e4649700546001600160a01b0316803b1561042657604051635ca4b5b160e11b815260048101839052306024820152905f90829081838160448101612ada565b908115612c29575b8015612c17575b602090606460018060a01b035f80516020612cbf8339815191525416935f604051958694859363022f65e760e31b8552600485015260248401528160448401525af1908115610470575f91612be8575090565b90506020813d602011612c0f575b81612c03602093836123e5565b81010312610426575190565b3d9150612bf6565b506020612c22612c39565b9050612b95565b9050612c33612c39565b90612b8e565b5f80516020612cbf83398151915254604051639cd07acb60e01b81525f600480830182905260248301529091602091839160449183916001600160a01b03165af1908115610470575f91612be8575090565b9081518082526020808093019301915f5b828110612caa575050505090565b835185529381019392810192600101612c9c56fe9e7b61f58c47dc699ac88507c4f5bb9f121c03808c5676a8078fe583e4649701a26469706673582212200268986f7d19036500791f11ac17e5b459061b79a92997675a8c1e5ea45d436064736f6c634300081800332f8788117e7eff1d82e926ec794901d17c78024a50270940304540a733656f0dad3228b676f7d3cd4284a5443f17f1962b36e491b30a40b2405849e597ba5fb5",
  "linkReferences": {},
  "deployedLinkReferences": {}
}